:020000040000FA
:0400000062EF3CF07F
:10770E001200848012008082120080841200809207
:10771E0080941200010E12EC3CF012001CEC3EF0B4
:0E772E0000EF00F0000E806E000E926E120052
:10773D0037383934353631323320303D534D545787
:10774D007446733230323100319EAAB0EF3BF0B245
:10775D00EF3BF0ABEF3BF0AE50120031043210D8DE
:10776D00A4BBEF3BF0BDEF3BF0C0EF3BF08484C119
:10777D00EF3BF08494120031043210D8A4C9EF3BD2
:10778D00F0CBEF3BF0D6EF3BF08482030E336E98D7
:10779D000EE82EFED7332EFCD78492CBEF3BF08430
:1077AD00921200000E936E270E336EF50EE82EFE2C
:1077BD00D7332EFCD700F0020E12EC3CF0280E123F
:1077CD00EC3CF0010E12EC3CF00C0E12EC3CF00611
:1077DD000E12EC3CF01200386E020E3860F9EF3BE1
:1077ED00F0FBEF3BF004EF3CF035500F0B80093907
:1077FD006E395012EC3CF00BEF3CF035500F0BC0D6
:10780D0009396E395012EC3CF036C033F037C034C4
:10781D00F08DEC3CF01200326E32C031F0F00E31D2
:10782D00168A500F0B31108A6E8A948A8600F08A60
:10783D0096030E316E980EE82EFED7312EFCD73200
:10784D00C031F0313AF00E31168A500F0B31108ADB
:10785D006E8A8600F08A96080E316ECA0EE82EFEEC
:10786D00D7312EFCD71200326E32C031F0F00E310E
:10787D00168A500F0B31108A6E8A848A8600F08A20
:10788D0096030E316E980EE82EFED7312EFCD732B0
:10789D00C031F0313AF00E31168A500F0B31108A8B
:1078AD006E8A8600F08A96080E316ECA0EE82EFE9C
:1078BD00D7312EFCD712003D0EF66E770EF76E0007
:1078CD000EF86E00EE60F010EE0CF00900F5CFEE44
:1078DD00FFE550E150FAE1490EF66E770EF76E00B6
:1078ED000EF86E00EE48F010EE0DF00900F5CFEE3B
:1078FD00FFE550E150FAE100EE01F0300EEE6AE8DE
:10790D0006FDE1000EF86E000195EF3BF0A3EF3C94
:10791D00F033C0F6FF34C0F7FFF86A070EF76403C3
:10792D00D00800F55005D0F6CFE9FFF7CFEAFFEF0D
:10793D00503AEC3CF0334A342A33C0F6FF34C0F7EA
:10794D00FFF86A070EF76403D00800F55005D0F66E
:10795D00CFE9FFF7CFEAFFEF500009D8A4B9EF3C0C
:10796D00F0BBEF3CF08FEF3CF01200000E356E2DAA
:10797D000E366E7F0E376E000EF2EC3BF0030E3CB2
:10798D006E080E3B6E770EE82EFED73B2EFCD73CD5
:10799D002EFAD700F0000E356E1C0E366E7F0E37A8
:1079AD006E000EF2EC3BF0030E3C6E080E3B6E7754
:1079BD000EE82EFED73B2EFCD73C2EFAD700F03129
:1079CD000E5418D8A4EDEF3CF0EFEF3CF0F1EF3C86
:1079DD00F058EC3DF0320E5418D8A4F8EF3CF0FA04
:1079ED00EF3CF0FCEF3CF087EC3BF012007D0EF627
:1079FD006E7E0EF76E20EE31F0100E0900F5CFDE23
:107A0D00FFE806FBE2000E436E000E426E000E45CF
:107A1D006E010E446E4438F00B8A6E81A419EF3D51
:107A2D00F01BEF3DF01DEF3DF04EEF3DF0424A43B0
:107A3D002A81A624EF3DF026EF3DF028EF3DF04ED4
:107A4D00EF3DF0424A432A81A82FEF3DF031EF3D43
:107A5D00F033EF3DF04EEF3DF0424A432A81AA3A12
:107A6D00EF3DF03CEF3DF03EEF3DF04EEF3DF0428F
:107A7D004A432AD89044364536455009E1100E4404
:107A8D005CD8A04CEF3DF04EEF3DF011EF3DF00016
:107A9D000E816E310E4224D96E000E4320DA6EDF58
:107AAD00501200000E546E000E326E010E316EC279
:107ABD00EC3BF0000E356E6E0E366E7F0E376E009F
:107ACD000EF2EC3BF0ABEC3BF03A6E3A501A6E1BFB
:107ADD006AABEC3BF03A6E3A50186E196AABEC3B60
:107AED00F03A6E3A50166E176A1A501B10D8B482BF
:107AFD00EF3DF084EF3DF0AAEF3DF018501910D88E
:107B0D00B48BEF3DF08DEF3DF0AAEF3DF016501721
:107B1D0010D8B494EF3DF096EF3DF0AAEF3DF01A7A
:107B2D00C02AF01BC02BF018C028F019C029F01680
:107B3D00C020F017C021F0000E326E000E316EC263
:107B4D00EC3BF01BEF3EF0000E326E000E316EC2BC
:107B5D00EC3BF0000E326E010E316EB4EC3BF000DA
:107B6D000E356EB50E366E7F0E376E000EF2EC3B97
:107B7D00F0820E3A6EDE0EE82EFED73A2EFCD700BE
:107B8D000E356EC00E366E7F0E376E000EF2EC3B6C
:107B9D00F0820E3A6EDE0EE82EFED73A2EFCD7009E
:107BAD000E356E8E0E366E7F0E376E000EF2EC3B7E
:107BBD00F0820E3A6EDE0EE82EFED73A2EFCD7007E
:107BCD000E356E9C0E366E7F0E376E000EF2EC3B50
:107BDD00F0820E3A6EDE0EE82EFED73A2EFCD7005E
:107BED000E356E7E0E366E7F0E376E000EF2EC3B4E
:107BFD00F0000E356E4E0E366E7F0E376E000EF2A5
:107C0D00EC3BF0000E356E5E0E366E7F0E376E005D
:107C1D000EF2EC3BF05404D8A417EF3EF019EF3EF2
:107C2D00F01BEF3EF087EC3BF0120088EC3BF0D8F8
:107C3D00EC3BF099EC3BF0BCEC3CF0000E356E3EAD
:107C4D000E366E7F0E376E000EF2EC3BF0030E47D4
:107C5D006E080E466E770EE82EFED7462EFCD747E1
:107C6D002EFAD700F0000E356E8E0E366E7E0E3764
:107C7D006E000EF2EC3BF0030E476E080E466E776B
:107C8D000EE82EFED7462EFCD7472EFAD700F00071
:107C9D000E356EC50E366E7E0E376E000EF2EC3B57
:107CAD00F0030E476E080E466E770EE82EFED74691
:107CBD002EFCD7472EFAD700F0000E356EB30E36D8
:107CCD006E7E0E376E000EF2EC3BF0030E476E0823
:107CDD000E466E770EE82EFED7462EFCD7472EFAAF
:107CED00D700F0000E356ED70E366E7E0E376E0055
:107CFD000EF2EC3BF0030E476E080E466E770EE863
:107D0D002EFED7462EFCD7472EFAD700F0FDEC3CC1
:107D1D00F0306E320E306E14041510D8A499EF3E6B
:107D2D00F09BEF3EF0D8EF3EF0000E356E0B0E36A9
:107D3D006E7F0E376E000EF2EC3BF0E1EF3EF00081
:107D4D000E356EE90E366E7E0E376E000EF2EC3B82
:107D5D00F0030E476E080E466E770EE82EFED746E0
:107D6D002EFCD7472EFAD700F08AEC3BF0050E47D4
:107D7D006E0F0E466EF10EE82EFED7462EFCD7473F
:107D8D002EFAD700F08EEC3BF0000E356EA10E36BC
:107D9D006E7E0E376E000EF2EC3BF0000E156E018E
:107DAD000E146E14501510D8B4DFEF3EF0E1EF3E17
:107DBD00F0A6EF3EF0330E3018D8A4E8EF3EF0EA0F
:107DCD00EF3EF024EF3EF014041510D8A4F1EF3E71
:107DDD00F0F3EF3EF032EF3FF027EF3FF0000E35BE
:107DED006EE90E366E7E0E376E000EF2EC3BF00332
:107DFD000E476E080E466E770EE82EFED7462EFC09
:107E0D00D7472EFAD700F08CEC3BF0050E476E0FDE
:107E1D000E466EF10EE82EFED7462EFCD7472EFAF3
:107E2D00D700F08EEC3BF0000E356EA10E366E7E57
:107E3D000E376E000EF2EC3BF0000E156E000E14B8
:107E4D006E14041510D8B42EEF3FF030EF3FF0F55F
:107E5D00EF3EF024EF3EF0000E356EFA0E366E7EDC
:107E6D000E376E000EF2EC3BF024EF3EF0120000E8
:107E7D003132333435363738390D300000000000DB
:107E8D000053656C6563696F6E65206F7063696F14
:107E9D006E3A2000416269657274612020202020B5
:107EAD00202020202000322E417065727475726181
:107EBD002020202020202000312E44657370657213
:107ECD007461646F722020202000332E446573701E
:107EDD0065727461646F722020202000417065729C
:107EED0074757261202020202020202000436F72A5
:107EFD0074696E6120636572726164612000436F05
:107F0D007274696E612061626965727461200032FC
:107F1D002E205465636C61646F202020202020008A
:107F2D00312E20426C7565746F6F7468202020208F
:107F3D00004269656E76656E69646F202020202091
:107F4D0000312E20536920202020202020202020A9
:107F5D0000322E204E6F2020202020202020202097
:107F6D0000426C7565746F6F7468204F4E20202031
:107F7D000055736172207465636C61646F3F2020DE
:107F8D000072656369626965726F6E202020006CF6
:107F9D006F73206461746F732020200050726573BD
:107FAD00732061204B6579004572726F722E2E2EF3
:107FBD002020004E6F2073652020200043616C202F
:107FCD0025782D0054696D3A25783A0025782000E2
:107FDD005765640054756500467269004D6F6E00FB
:107FED0053756E005361740054687500414D005017
:037FFD004D000034
:020000040020DA
:08000000FFFFFFFFFFFFFFFF00
:020000040030CA
:0E00000000091F1EFF8181FF0FC00FE00F409F
:00000001FF
