:020000040000FA
:04000000C5EF3FF019
:107F8A000001C8EF3FF0000ED36E010E936E010E92
:107F9A00966E96829684030E026EE80E016EDBECF4
:107FAA003FF096909692969400EF00F0000E046EC1
:107FBA00000E036EF4EF3FF0000E066E000E056E23
:107FCA00054A062A065009E1A50E055CD8A0F0EF7D
:107FDA003FF0F2EF3FF0E5EF3FF0034A042A015089
:107FEA00035C02500458D8A0FDEF3FF0FFEF3FF0CA
:067FFA00E1EF3FF0120070
:020000040020DA
:08000000FFFFFFFFFFFFFFFF00
:020000040030CA
:0E000000000A1F1EFF8385FF0FC00FE00F4098
:00000001FF
